:100000005BC097C47EC07DC07CC07BC07AC079C015
:1000100078C0C4C276C075C074C073C046C271C017
:1000200070C06FC06EC00600FF0901A10115002657
:10003000FF00750895060900B20201C009022200FE
:1000400001010080320904000001030000000921C1
:10005000010100012216000705810308000A1201B0
:10006000100100000008C016DF05020101020301B3
:100070000A0330003000300031000E0354005200FB
:1000800041004300450052002C03670068006A00ED
:100090002E006D006F007200730069006E006B002F
:1000A000400067006D00610069006C002E00630075
:1000B0006F006D000403090411241FBECFE5D4E0D6
:1000C000DEBFCDBF84B714BE0FB6F894A89581B536
:1000D000886181BD11BC0FBE10E0A0E6B0E0E4E392
:1000E000FCE002C005900D92A236B107D9F720E0DE
:1000F000A2E6B0E001C01D92A23CB207E1F763D0D6
:1001000097C57ECFEBE7F0E0118212821382148252
:10011000158208950F931F93CF93DF93EC0198817D
:1001200088B321E0282728BB292F269526952695D8
:100130002F7019F02F30C9F141C0892F877082309C
:10014000B9F018F4882331F039C0833099F0843045
:10015000E9F034C081E08093820089818093880037
:100160008A81809389008B8180938700CBDF26C0B2
:1001700040D124C0098110E0000F111F6A81C8011D
:100180004AD56B81C801019646D518C0098110E097
:10019000000F111FC80137D58A83C801019633D5D6
:1001A0008B8388818068888309C098E088E10FB6D6
:1001B000F894A89581BD0FBE91BDFFCFDF91CF917F
:1001C0001F910F910895F8940FB6F894A89581B5F2
:1001D000886181BD11BC0FBE8FE287BB18BA80E178
:1001E00084BB15BA82E080BF13BE1EBC16B817B818
:1001F00080EE82BB86E181BB9FEF80E08150F1F70A
:100200009150D9F782E081BB85E083BFBDD16BD32C
:10021000789410928200A89511D28091820081304A
:1002200019F0823029F0F7CFA8D010928200F3CFD6
:1002300010928200F0CFFC0190819076903259F4B8
:100240008181877F813049F486E08093620010923B
:1002500063008FEF089580E0089580E008951F9374
:10026000CF93DF93C0916200DC2F6C1708F4D62F78
:10027000109163004D2F50E0612F70E065587F4F63
:10028000B9D41D0F10936300CD1BC09362008D2F56
:10029000DF91CF911F9108951F93CF93DF93C0916A
:1002A0006200CC2329F1DC2F6C1708F4D62F1091B3
:1002B00063002D2F30E0210F311D27303105D4F49C
:1002C000BC01812F90E04D2F50E085589F4F92D474
:1002D0001D0F10936300CD1BC09362008BE790E06D
:1002E00019DF81E090916200992329F080E003C03A
:1002F00081E001C081E0DF91CF911F910895CF93FC
:100300002091650090918900291788F5C82F3CD16C
:10031000C0938B001DBC1CBC80918700813061F4B0
:100320008AB59BB520916600821B910918161906A3
:100330007CF081E090E00CC08AB59BB5209166000E
:10034000820F911D8F3F910519F014F08FEF90E00F
:100350009BBD8ABD809165008F5F809365008FE0B3
:1003600080937200109264001092670004C0109293
:10037000650010927200CF910895C39A81EA8FBDF3
:1003800089E08EBD1DBC1CBC80918700813071F45A
:100390008FEF90E09BBD8ABD2091880080E091E0C6
:1003A000821B910999BD88BDAC9A0AC081E090E09A
:1003B0009BBD8ABD8091880090E099BD88BDAC98B6
:1003C000109265006091890070E080E091E0EBD3CD
:1003D00060936600C39888E092DF0895FC019181E4
:1003E000892F90E001962081820F911D9695879527
:1003F00008951F93CF93DF93809164008F5F809364
:1004000064008091720080FD1FC0CBE7D0E0809136
:100410006500806888838CE690E0E0DF898380E770
:1004200090E0DCDF8A838EE690E0D8DF182F8AE642
:1004300090E0D4DF811B8B8388E690E0CFDF8C8354
:100440001D8384E05CDF0EC05DDE8091640085303A
:1004500048F08091650081508093650084E04FDF13
:1004600010926400DF91CF911F91089580917200E6
:1004700080FD04C089B78E7F89BF089582FD07C0C3
:100480008E7F8093720089B78E7F89BF08958B7F9E
:100490008093720080E287B98FED86B982E0809305
:1004A0008B0010926700C39A08951F920F920FB6A7
:1004B0000F9211248F939F93EF93FF9387B190E94D
:1004C00096B98770823019F128F4882341F0813081
:1004D00091F03CC0833039F1863089F137C085B165
:1004E000E0916700F0E0E059FF4F808381E287B937
:1004F0008FED86B940C085B1E0916700F0E0E25928
:10050000FF4F808382E287B98FED86B934C085B111
:10051000E0916700F0E0E459FF4F808383E287B900
:100520008FED86B928C085B1E0916700F0E0E6590B
:10053000FF4F808386E287B98FED86B91CC085B1F5
:10054000E0916700F0E0E859FF4F808380916700F9
:100550008F5F80936700823028F480E287B98FED47
:1005600086B909C0809172008E7F8093720089B72E
:100570008E7F89BFC398FF91EF919F918F910F90CC
:100580000FBE0F901F90189585E083BF8BE882BF48
:1005900089B7816089BF10928B0008951F920F92D6
:1005A0000FB60F9211242F933F934F935F936F9346
:1005B0007F938F939F93AF93BF93EF93FF938BE8BA
:1005C00082BF80918B00882331F0815080938B0013
:1005D000811101C04BDFFF91EF91BF91AF919F91CE
:1005E0008F917F916F915F914F913F912F910F90DC
:1005F0000FBE0F901F901895CF93C62F2091970094
:1006000024FF07C0E7E9F0E0318128E823272183B0
:1006100003C02AE520939700E82FF92FA9E9B0E05D
:100620008C2F91919D938150E1F76C2F89E990E097
:100630007CD1CC5FC0939700CF910895CF93DF9387
:100640006091A80063500AF4D9C02091A5008CE005
:1006500090E0821B9109EC01C455DF4F8091A4000A
:100660008D3209F0BAC0683009F0C6C083EC8093BF
:100670008C008AE5809361001092730088818076F7
:1006800019F0CE01D8DD95C09A811092950089812C
:10069000811106C01092960025E930E082E085C005
:1006A000853031F49093A90025E930E080E07DC0E9
:1006B000863009F05AC08B81813041F48EE590E09C
:1006C0009093A7008093A60082E14BC0823041F452
:1006D0008CE390E09093A7008093A60082E241C053
:1006E000833041F5911108C084EB90E09093A7000E
:1006F0008093A60084E035C0913041F488E890E012
:100700009093A7008093A6008CE22BC0923041F416
:100710008AE790E09093A7008093A6008EE021C026
:100720009330E1F480E790E09093A7008093A600D7
:100730008AE017C0813241F48EE490E09093A700E4
:100740008093A60089E00DC0823251F486E290E0E9
:100750009093A7008093A60086E103C080E001C0CB
:1007600080E090E49093730024C0883099F0893041
:1007700031F49093AB0025E930E080E016C08A3078
:1007800069F08B3079F48BE48093980025E930E0B0
:1007900080E00BC02BEA30E081E007C025E930E0C3
:1007A00081E003C025E930E080E03093A70020938A
:1007B000A6008F3F41F4988199230CF48E8190E834
:1007C0009093730007C09F81911104C09E81981778
:1007D00008F4892F809360000FC0809173008823F4
:1007E0005CF4CE0159DD8F3F21F48EE180936100EE
:1007F00003C08111109260001092A80080916100E6
:1008000084FF5AC0809160008F3F09F455C0C82F03
:10081000893008F0C8E08C1B80936000ECE8F0E0C1
:10082000908188E889278083CC2309F453C0809184
:100830007300882334F46C2F8DE890E010DDC82F0E
:1008400028C02091A6003091A70086FF10C0ADE817
:10085000B0E0F9018C2F94919D9331968150D9F796
:100860008FEF8C0F90E00196280F391F0EC0D90131
:10087000EDE8F0E08C2F9D9191938150E1F78FEF9F
:100880008C0F90E00196280F391F3093A70020931A
:10089000A600C93058F46C2F8DE890E046D0CC5FAC
:1008A000CC3040F48FEF8093600004C08FEF8093D2
:1008B0006000CEE1C093610080B3847189F493E15C
:1008C00080B3847169F49150D9F71092A900109205
:1008D000A30006C060E08DE890E027D0C4E0E2CF3E
:1008E000DF91CF91089585B7826085BF8BB7806413
:1008F0008BBFE7E9F0E08BE481838AE5808308958C
:10090000A82FB92F80E090E041E050EA609530E0F8
:1009100009C02D9182279795879510F084279527F8
:10092000305EC8F36F5FA8F30895EADF8D939D935F
:100930000895CF93CFB7CF93C395849BE9F7849B5A
:1009400009C0849B07C0849B05C0849B03C0849B13
:1009500001C0A3C0DF93C091A500DD27C455DF4FC0
:10096000849B02C0DF91EBCF2F930F931F9300B3B3
:100970002FEF04FB20F94F933F9310B34FEF012764
:1009800004FB21F93BE031C04E7F012F10B3216001
:1009900028C0102F4D7F2260000000B329C04B7F7C
:1009A0002460012F000010B32BC010B3477F2860D4
:1009B0002AC04F7E00B320612CC04F7D10B320624F
:1009C0002FC04F7B00B3206432C0422700B349934D
:1009D0004FEF0000102714FB20F910B31471C9F178
:1009E000297F91F2012704FB21F900B3237F89F2CB
:1009F000315058F1102714FB22F910B3277E79F2F9
:100A0000012704FB23F92F7C81F200B3102714FB8C
:100A100024F92F7971F200C010B3012704FB25F9E6
:100A20002F7359F200C000B3102714FB26F92230AF
:100A300040F200C010B3012704FB27F9243028F648
:100A40004F77206810B30000F9CF10E41ABF0027D9
:100A500019C03B503195C31BD04010E41ABF088128
:100A6000033CF9F00B34E9F02091A3001981110F38
:100A70001213EDCF4A81441F093641F10D3211F0B6
:100A8000013E29F70093AA003F914F911F910F91CA
:100A90002F91DF91CAB7C6FD4FCFCF91CFBFCF9176
:100AA00018952091AA00222379F31091A800112310
:100AB00069F534306AF13093A8002093A4001091B6
:100AC000A5003BE0311B3093A50022C00091A80097
:100AD0000130E4F40AE54F7049F43091610034FDCF
:100AE00019C000936100CCE8D0E018C030919700A5
:100AF00034FD10C000939700C8E9D0E00FC02795DF
:100B0000A8F45150A9F4220F0000F9CF4AE503C020
:100B100042ED01C0432FC4E1D0E032E011B31461D3
:100B2000949A11BB02B320E414E15F93012756E0CD
:100B300002BB279520F4515021F4220FF9CF012751
:100B400056E000003B5A02BBD0F2279528F45150E2
:100B500029F4220F0000F9CF012756E0279502BBA8
:100B600020F4515021F4220FF9CF012756E02991AA
:100B7000332302BB21F60B7E1091A900110FC65141
:100B8000D04002BB11F01093A30010E41ABF006123
:100B900011B31B7E402F4B7E5F9100C000C002BB93
:100BA00011BB42BB71CF97FB072E16F4009406D001
:100BB00077FD08D00BD007FC05D03EF490958195C9
:100BC0009F4F0895709561957F4F0895AA1BBB1B99
:100BD00051E107C0AA1FBB1FA617B70710F0A61B3D
:100BE000B70B881F991F5A95A9F780959095BC015E
:100BF000CD010895FB01DC0102C001900D9241502E
:100C00005040D8F70895E199FECF9FBB8EBBE09A84
:100C100099278DB30895262FE199FECF9FBB8EBBF8
:100C20002DBB0FB6F894E29AE19A0FBE0196089593
:040C3000F894FFCF66
:020C3400FF5A65
:1018000049C05CC262C061C060C05FC05EC05DC0F4
:101810005CC05BC05AC059C058C057C056C055C004
:1018200054C053C052C00600FF0901A10115002693
:10183000FF007508850195060900B2020185029531
:10184000430900B20201C0090222000101008032F6
:101850000904000001030000000921010100012228
:101860002100070581030800141201100100000087
:1018700008C016DF050101010200010C0348004207
:10188000006F006F00740008034D00500043000417
:101890000309040011241FBECFE5D4E0DEBFCDBF95
:1018A00010E0A0E6B0E0ECEEFFE102C005900D9282
:1018B000AA36B107D9F720E0AAE6B0E001C01D9230
:1018C000A73AB207E1F734D38FC39ACFFC0181E086
:1018D00080936E009181993039F48281823071F465
:1018E00010926F008FEF0895913041F480E690E000
:1018F00090938C0080938B0087E0089580E008959A
:10190000DC0180916F0081111CC011969C91119790
:1019100090936C0012969C91129790936D00149680
:10192000645020916C0030916D00203C3F4F49F491
:1019300098E088E10FB6F894A89581BD0FBE91BDDF
:10194000FFCF860F80936F0023E031E045E06623F0
:1019500009F440C080916C008F73C9F0F894E09155
:101960006C00F0916D008D919D910C0130935700AA
:10197000E8951124789480916C0090916D00029606
:1019800090936D0080936C008F73B1F021C08091B3
:101990006C0090916D0090936B0080936A00F894B6
:1019A000E0916C00F0916D0020935700E8957894D9
:1019B00007B600FCFDCFD2CFF894E0916A00F09119
:1019C0006B0040935700E895789407B600FCFDCF74
:1019D0006250BDCF80916F00803409F080E008959F
:1019E000CF93C62F20917C0024FF0BC030917D0047
:1019F00028E8232720937D00FC01AEE7B0E08C2F80
:101A000004C02AE520937C00F7CF91919D938150EB
:101A1000E1F76C2F8EE790E04DD1CC5FC0937C0056
:101A2000CF910895CF93DF9360918D00635067FD50
:101A3000C3C080918A00CCE0D0E0C81BD109CF564A
:101A4000DF4F809189008D3209F0A5C0683009F020
:101A5000B1C083EC809371008AE580936800109296
:101A600070008881807631F0CE0130DF8F3F09F43D
:101A700081C087C09A8110927A008981811106C045
:101A800010927B002AE730E082E06FC0853019F4C5
:101A900090938E0067C0863009F04EC08B818130F4
:101AA00041F489E698E190938C0080938B0082E169
:101AB0003FC0823041F487E498E190938C0080939A
:101AC0008B0082E235C08330F1F4911108C08FE8B9
:101AD00098E190938C0080938B0084E029C0913032
:101AE00041F487E898E190938C0080938B0088E024
:101AF0001FC09230E1F48BE798E190938C008093C3
:101B00008B008CE015C0813241F489E598E1909317
:101B10008C0080938B0089E00BC0823241F486E216
:101B200098E190938C0080938B0081E201C080E06B
:101B300090E49093700025C0883069F0893019F4E2
:101B4000909390000FC08A3049F08B3059F48BE4A9
:101B500080937D0007C020E930E002C02AE730E032
:101B600081E003C02AE730E080E030938C002093CE
:101B70008B0007C0988197FD8E8190E8909370004C
:101B800007C09F81911104C09E81981708F4892F86
:101B9000809367000FC08091700087FF0BC0CE015B
:101BA000AFDE8F3F21F48EE18093680003C0811186
:101BB0001092670010928D008091680084FF4BC0E6
:101BC000809167008F3F09F446C0C82F893008F024
:101BD000C8E08C1B809367009091710088E889278A
:101BE00080937100CC2359F180918B0090918C00EF
:101BF0002091700026FF12C0A1E7B0E02C2FAC01AD
:101C000041575040FA01EA0FFB1FE4911196EC9303
:101C10001197215011962111F5CF08C0E2E7F0E0AD
:101C2000DC012C2F3D9131932150E1F701962FEFEC
:101C30002C0F820F911D90938C0080938B006C2F42
:101C400082E790E037D0CC5FCC3019F08FEF8093F3
:101C50006700C093680084E190B3947131F48150BF
:101C6000D9F710928E0010928800DF91CF910895DD
:101C700085B7836085BF8BB780648BBFECE7F0E0EE
:101C80008BE481838AE580830895A82FB92F80E0B3
:101C900090E041E050EA609530E009C02D91822744
:101CA0009795879510F084279527305EC8F36F5F6E
:101CB000A8F30895EADF8D939D930895CF93CFB74E
:101CC000CF93C395849BE9F7849B09C0849B07C08D
:101CD000849B05C0849B03C0849B01C0A3C0DF9389
:101CE000C0918A00DD27CF56DF4F849B02C0DF9171
:101CF000EBCF2F930F931F9300B32FEF04FB20F92B
:101D00004F933F9310B34FEF012704FB21F93BE0C2
:101D100031C04E7F012F10B3216028C0102F4D7F9E
:101D20002260000000B329C04B7F2460012F000017
:101D300010B32BC010B3477F28602AC04F7E00B37A
:101D400020612CC04F7D10B320622FC04F7B00B3A9
:101D5000206432C0422700B349934FEF00001027A0
:101D600014FB20F910B31471C9F1297F91F20127F6
:101D700004FB21F900B3237F89F2315058F1102779
:101D800014FB22F910B3277E79F2012704FB23F913
:101D90002F7C81F200B3102714FB24F92F7971F204
:101DA00000C010B3012704FB25F92F7359F200C0BE
:101DB00000B3102714FB26F9223040F200C010B304
:101DC000012704FB27F9243028F64F77206810B349
:101DD0000000F9CF10E41ABF002719C03B5031951D
:101DE000C31BD04010E41ABF0881033CF9F00B3448
:101DF000E9F0209188001981110F1213EDCF4A816B
:101E0000441F093641F10D3211F0013E29F70093CC
:101E10008F003F914F911F910F912F91DF91CAB782
:101E2000C6FD4FCFCF91CFBFCF91189520918F0096
:101E3000222379F310918D00112369F534306AF172
:101E400030938D002093890010918A003BE0311B74
:101E500030938A0022C000918D000130E4F40AE53D
:101E60004F7049F43091680034FD19C00093680048
:101E7000C1E7D0E018C030917C0034FD10C0009361
:101E80007C00CDE7D0E00FC02795A8F45150A9F40D
:101E9000220F0000F9CF4AE503C042ED01C0432FF5
:101EA000C4E1D0E032E011B31461949A11BB02B3E3
:101EB00020E414E15F93012756E002BB279520F44C
:101EC000515021F4220FF9CF012756E000003B5A70
:101ED00002BBD0F2279528F4515029F4220F0000BC
:101EE000F9CF012756E0279502BB20F4515021F489
:101EF000220FF9CF012756E02991332302BB21F6A7
:101F00000B7E10918E00110FC651D04002BB11F014
:101F10001093880010E41ABF006111B31B7E402F9C
:101F20004B7E5F9100C000C002BB11BB42BB71CFB2
:101F3000CF93DF9300D0CDB7DEB70FB6F894A89556
:101F400081B5886181BD11BC0FBE81E287BB8CE089
:101F500088BB81E08BBF82E08BBF87E181BB1982A8
:101F6000898181508983882339F01A828A8181503E
:101F70008A838111FBCFF4CF82E081BB789478DE35
:101F800091E1B92EAA24A394812C912CC12C80EC30
:101F9000D82E87E0E82EF12C45DD80916E00882355
:101FA00019F010926E00F2CF81E0C81AD108E10852
:101FB000F10891F7B39BEACF00E011E0F8018491BA
:101FC0008F3F59F0F894B0925700E8951BBE15BEAC
:101FD00013BEABBE1BBEF40109950F5F1F4F003847
:0C1FE000F1E01F0759F7D2CFF894FFCFB3
:0A1FEC0001400000200000FF5A0031
:00000001FF

