:1018000049C05CC262C061C060C05FC05EC05DC0F4
:101810005CC05BC05AC059C058C057C056C055C004
:1018200054C053C052C00600FF0901A10115002693
:10183000FF007508850195060900B2020185029531
:10184000430900B20201C0090222000101008032F6
:101850000904000001030000000921010100012228
:101860002100070581030800141201100100000087
:1018700008C016DF050101010200010C0348004207
:10188000006F006F00740008034D00500043000417
:101890000309040011241FBECFE5D4E0DEBFCDBF95
:1018A00010E0A0E6B0E0ECEEFFE102C005900D9282
:1018B000AA36B107D9F720E0AAE6B0E001C01D9230
:1018C000A73AB207E1F734D38FC39ACFFC0181E086
:1018D00080936E009181993039F48281823071F465
:1018E00010926F008FEF0895913041F480E690E000
:1018F00090938C0080938B0087E0089580E008959A
:10190000DC0180916F0081111CC011969C91119790
:1019100090936C0012969C91129790936D00149680
:10192000645020916C0030916D00203C3F4F49F491
:1019300098E088E10FB6F894A89581BD0FBE91BDDF
:10194000FFCF860F80936F0023E031E045E06623F0
:1019500009F440C080916C008F73C9F0F894E09155
:101960006C00F0916D008D919D910C0130935700AA
:10197000E8951124789480916C0090916D00029606
:1019800090936D0080936C008F73B1F021C08091B3
:101990006C0090916D0090936B0080936A00F894B6
:1019A000E0916C00F0916D0020935700E8957894D9
:1019B00007B600FCFDCFD2CFF894E0916A00F09119
:1019C0006B0040935700E895789407B600FCFDCF74
:1019D0006250BDCF80916F00803409F080E008959F
:1019E000CF93C62F20917C0024FF0BC030917D0047
:1019F00028E8232720937D00FC01AEE7B0E08C2F80
:101A000004C02AE520937C00F7CF91919D938150EB
:101A1000E1F76C2F8EE790E04DD1CC5FC0937C0056
:101A2000CF910895CF93DF9360918D00635067FD50
:101A3000C3C080918A00CCE0D0E0C81BD109CF564A
:101A4000DF4F809189008D3209F0A5C0683009F020
:101A5000B1C083EC809371008AE580936800109296
:101A600070008881807631F0CE0130DF8F3F09F43D
:101A700081C087C09A8110927A008981811106C045
:101A800010927B002AE730E082E06FC0853019F4C5
:101A900090938E0067C0863009F04EC08B818130F4
:101AA00041F489E698E190938C0080938B0082E169
:101AB0003FC0823041F487E498E190938C0080939A
:101AC0008B0082E235C08330F1F4911108C08FE8B9
:101AD00098E190938C0080938B0084E029C0913032
:101AE00041F487E898E190938C0080938B0088E024
:101AF0001FC09230E1F48BE798E190938C008093C3
:101B00008B008CE015C0813241F489E598E1909317
:101B10008C0080938B0089E00BC0823241F486E216
:101B200098E190938C0080938B0081E201C080E06B
:101B300090E49093700025C0883069F0893019F4E2
:101B4000909390000FC08A3049F08B3059F48BE4A9
:101B500080937D0007C020E930E002C02AE730E032
:101B600081E003C02AE730E080E030938C002093CE
:101B70008B0007C0988197FD8E8190E8909370004C
:101B800007C09F81911104C09E81981708F4892F86
:101B9000809367000FC08091700087FF0BC0CE015B
:101BA000AFDE8F3F21F48EE18093680003C0811186
:101BB0001092670010928D008091680084FF4BC0E6
:101BC000809167008F3F09F446C0C82F893008F024
:101BD000C8E08C1B809367009091710088E889278A
:101BE00080937100CC2359F180918B0090918C00EF
:101BF0002091700026FF12C0A1E7B0E02C2FAC01AD
:101C000041575040FA01EA0FFB1FE4911196EC9303
:101C10001197215011962111F5CF08C0E2E7F0E0AD
:101C2000DC012C2F3D9131932150E1F701962FEFEC
:101C30002C0F820F911D90938C0080938B006C2F42
:101C400082E790E037D0CC5FCC3019F08FEF8093F3
:101C50006700C093680084E190B3947131F48150BF
:101C6000D9F710928E0010928800DF91CF910895DD
:101C700085B7836085BF8BB780648BBFECE7F0E0EE
:101C80008BE481838AE580830895A82FB92F80E0B3
:101C900090E041E050EA609530E009C02D91822744
:101CA0009795879510F084279527305EC8F36F5F6E
:101CB000A8F30895EADF8D939D930895CF93CFB74E
:101CC000CF93C395849BE9F7849B09C0849B07C08D
:101CD000849B05C0849B03C0849B01C0A3C0DF9389
:101CE000C0918A00DD27CF56DF4F849B02C0DF9171
:101CF000EBCF2F930F931F9300B32FEF04FB20F92B
:101D00004F933F9310B34FEF012704FB21F93BE0C2
:101D100031C04E7F012F10B3216028C0102F4D7F9E
:101D20002260000000B329C04B7F2460012F000017
:101D300010B32BC010B3477F28602AC04F7E00B37A
:101D400020612CC04F7D10B320622FC04F7B00B3A9
:101D5000206432C0422700B349934FEF00001027A0
:101D600014FB20F910B31471C9F1297F91F20127F6
:101D700004FB21F900B3237F89F2315058F1102779
:101D800014FB22F910B3277E79F2012704FB23F913
:101D90002F7C81F200B3102714FB24F92F7971F204
:101DA00000C010B3012704FB25F92F7359F200C0BE
:101DB00000B3102714FB26F9223040F200C010B304
:101DC000012704FB27F9243028F64F77206810B349
:101DD0000000F9CF10E41ABF002719C03B5031951D
:101DE000C31BD04010E41ABF0881033CF9F00B3448
:101DF000E9F0209188001981110F1213EDCF4A816B
:101E0000441F093641F10D3211F0013E29F70093CC
:101E10008F003F914F911F910F912F91DF91CAB782
:101E2000C6FD4FCFCF91CFBFCF91189520918F0096
:101E3000222379F310918D00112369F534306AF172
:101E400030938D002093890010918A003BE0311B74
:101E500030938A0022C000918D000130E4F40AE53D
:101E60004F7049F43091680034FD19C00093680048
:101E7000C1E7D0E018C030917C0034FD10C0009361
:101E80007C00CDE7D0E00FC02795A8F45150A9F40D
:101E9000220F0000F9CF4AE503C042ED01C0432FF5
:101EA000C4E1D0E032E011B31461949A11BB02B3E3
:101EB00020E414E15F93012756E002BB279520F44C
:101EC000515021F4220FF9CF012756E000003B5A70
:101ED00002BBD0F2279528F4515029F4220F0000BC
:101EE000F9CF012756E0279502BB20F4515021F489
:101EF000220FF9CF012756E02991332302BB21F6A7
:101F00000B7E10918E00110FC651D04002BB11F014
:101F10001093880010E41ABF006111B31B7E402F9C
:101F20004B7E5F9100C000C002BB11BB42BB71CFB2
:101F3000CF93DF9300D0CDB7DEB70FB6F894A89556
:101F400081B5886181BD11BC0FBE81E287BB8CE089
:101F500088BB81E08BBF82E08BBF87E181BB1982A8
:101F6000898181508983882339F01A828A8181503E
:101F70008A838111FBCFF4CF82E081BB789478DE35
:101F800091E1B92EAA24A394812C912CC12C80EC30
:101F9000D82E87E0E82EF12C45DD80916E00882355
:101FA00019F010926E00F2CF81E0C81AD108E10852
:101FB000F10891F7B39BEACF00E011E0F8018491BA
:101FC0008F3F59F0F894B0925700E8951BBE15BEAC
:101FD00013BEABBE1BBEF40109950F5F1F4F003847
:0C1FE000F1E01F0759F7D2CFF894FFCFB3
:0A1FEC0001400000200000FF5A0031
:0400000300001800E1
:00000001FF
